{"contracts/Transactions.sol":{"Transactions":{"abi":[{"anonymous":false,"inputs":[{"indexed":false,"internalType":"address","name":"from","type":"address"},{"indexed":false,"internalType":"address","name":"receiver","type":"address"},{"indexed":false,"internalType":"uint256","name":"amount","type":"uint256"},{"indexed":false,"internalType":"string","name":"message","type":"string"},{"indexed":false,"internalType":"uint256","name":"timestamp","type":"uint256"}],"name":"Transfer","type":"event"},{"inputs":[{"internalType":"address payable","name":"receiver","type":"address"},{"internalType":"uint256","name":"amount","type":"uint256"},{"internalType":"string","name":"message","type":"string"}],"name":"addToBlockchain","outputs":[],"stateMutability":"nonpayable","type":"function"},{"inputs":[],"name":"getAllTransactions","outputs":[{"components":[{"internalType":"address","name":"sender","type":"address"},{"internalType":"address","name":"receiver","type":"address"},{"internalType":"uint256","name":"amount","type":"uint256"},{"internalType":"string","name":"message","type":"string"},{"internalType":"uint256","name":"timestamp","type":"uint256"}],"internalType":"struct Transactions.TransferStruct[]","name":"","type":"tuple[]"}],"stateMutability":"view","type":"function"}],"evm":{"bytecode":{"linkReferences":{},"object":"608060405234801561001057600080fd5b50610a0f806100206000396000f3fe608060405234801561001057600080fd5b50600436106100365760003560e01c806327506f531461003b578063eb12da4a14610059575b600080fd5b610043610075565b604051610050919061075b565b60405180910390f35b610073600480360381019061006e91906104de565b610226565b005b60606000805480602002602001604051908101604052809291908181526020016000905b8282101561021d57838290600052602060002090600502016040518060a00160405290816000820160009054906101000a900473ffffffffffffffffffffffffffffffffffffffff1673ffffffffffffffffffffffffffffffffffffffff1673ffffffffffffffffffffffffffffffffffffffff1681526020016001820160009054906101000a900473ffffffffffffffffffffffffffffffffffffffff1673ffffffffffffffffffffffffffffffffffffffff1673ffffffffffffffffffffffffffffffffffffffff168152602001600282015481526020016003820180546101829061090a565b80601f01602080910402602001604051908101604052809291908181526020018280546101ae9061090a565b80156101fb5780601f106101d0576101008083540402835291602001916101fb565b820191906000526020600020905b8154815290600101906020018083116101de57829003601f168201915b5050505050815260200160048201548152505081526020019060010190610099565b50505050905090565b60006040518060a001604052803373ffffffffffffffffffffffffffffffffffffffff1681526020018573ffffffffffffffffffffffffffffffffffffffff16815260200184815260200183815260200142815250908060018154018082558091505060019003906000526020600020906005020160009091909190915060008201518160000160006101000a81548173ffffffffffffffffffffffffffffffffffffffff021916908373ffffffffffffffffffffffffffffffffffffffff16021790555060208201518160010160006101000a81548173ffffffffffffffffffffffffffffffffffffffff021916908373ffffffffffffffffffffffffffffffffffffffff1602179055506040820151816002015560608201518160030190805190602001906103589291906103a9565b506080820151816004015550507fc4b32d7ff75a51e487f3cbb5d3202f2efecca1f4c2b987e0039c1d3220b48a83338484844260405161039c959493929190610701565b60405180910390a1505050565b8280546103b59061090a565b90600052602060002090601f0160209004810192826103d7576000855561041e565b82601f106103f057805160ff191683800117855561041e565b8280016001018555821561041e579182015b8281111561041d578251825591602001919060010190610402565b5b50905061042b919061042f565b5090565b5b80821115610448576000816000905550600101610430565b5090565b600061045f61045a846107ae565b61077d565b90508281526020810184848401111561047757600080fd5b6104828482856108c8565b509392505050565b600081359050610499816109ab565b92915050565b600082601f8301126104b057600080fd5b81356104c084826020860161044c565b91505092915050565b6000813590506104d8816109c2565b92915050565b6000806000606084860312156104f357600080fd5b60006105018682870161048a565b9350506020610512868287016104c9565b925050604084013567ffffffffffffffff81111561052f57600080fd5b61053b8682870161049f565b9150509250925092565b6000610551838361066d565b905092915050565b61056281610892565b82525050565b61057181610844565b82525050565b61058081610844565b82525050565b6000610591826107ee565b61059b8185610811565b9350836020820285016105ad856107de565b8060005b858110156105e957848403895281516105ca8582610545565b94506105d583610804565b925060208a019950506001810190506105b1565b50829750879550505050505092915050565b6000610606826107f9565b6106108185610822565b93506106208185602086016108d7565b6106298161099a565b840191505092915050565b600061063f826107f9565b6106498185610833565b93506106598185602086016108d7565b6106628161099a565b840191505092915050565b600060a0830160008301516106856000860182610568565b5060208301516106986020860182610568565b5060408301516106ab60408601826106e3565b50606083015184820360608601526106c382826105fb565b91505060808301516106d860808601826106e3565b508091505092915050565b6106ec81610888565b82525050565b6106fb81610888565b82525050565b600060a0820190506107166000830188610577565b6107236020830187610559565b61073060408301866106f2565b81810360608301526107428185610634565b905061075160808301846106f2565b9695505050505050565b600060208201905081810360008301526107758184610586565b905092915050565b6000604051905081810181811067ffffffffffffffff821117156107a4576107a361096b565b5b8060405250919050565b600067ffffffffffffffff8211156107c9576107c861096b565b5b601f19601f8301169050602081019050919050565b6000819050602082019050919050565b600081519050919050565b600081519050919050565b6000602082019050919050565b600082825260208201905092915050565b600082825260208201905092915050565b600082825260208201905092915050565b600061084f82610868565b9050919050565b600061086182610868565b9050919050565b600073ffffffffffffffffffffffffffffffffffffffff82169050919050565b6000819050919050565b600061089d826108a4565b9050919050565b60006108af826108b6565b9050919050565b60006108c182610868565b9050919050565b82818337600083830152505050565b60005b838110156108f55780820151818401526020810190506108da565b83811115610904576000848401525b50505050565b6000600282049050600182168061092257607f821691505b602082108114156109365761093561093c565b5b50919050565b7f4e487b7100000000000000000000000000000000000000000000000000000000600052602260045260246000fd5b7f4e487b7100000000000000000000000000000000000000000000000000000000600052604160045260246000fd5b6000601f19601f8301169050919050565b6109b481610856565b81146109bf57600080fd5b50565b6109cb81610888565b81146109d657600080fd5b5056fea26469706673582212209de8376f43a4f7194248569bd4aebdae8e11b086f6116007d136a71b18263c6464736f6c63430008000033","opcodes":"PUSH1 0x80 PUSH1 0x40 MSTORE CALLVALUE DUP1 ISZERO PUSH2 0x10 JUMPI PUSH1 0x0 DUP1 REVERT JUMPDEST POP PUSH2 0xA0F DUP1 PUSH2 0x20 PUSH1 0x0 CODECOPY PUSH1 0x0 RETURN INVALID PUSH1 0x80 PUSH1 0x40 MSTORE CALLVALUE DUP1 ISZERO PUSH2 0x10 JUMPI PUSH1 0x0 DUP1 REVERT JUMPDEST POP PUSH1 0x4 CALLDATASIZE LT PUSH2 0x36 JUMPI PUSH1 0x0 CALLDATALOAD PUSH1 0xE0 SHR DUP1 PUSH4 0x27506F53 EQ PUSH2 0x3B JUMPI DUP1 PUSH4 0xEB12DA4A EQ PUSH2 0x59 JUMPI JUMPDEST PUSH1 0x0 DUP1 REVERT JUMPDEST PUSH2 0x43 PUSH2 0x75 JUMP JUMPDEST PUSH1 0x40 MLOAD PUSH2 0x50 SWAP2 SWAP1 PUSH2 0x75B JUMP JUMPDEST PUSH1 0x40 MLOAD DUP1 SWAP2 SUB SWAP1 RETURN JUMPDEST PUSH2 0x73 PUSH1 0x4 DUP1 CALLDATASIZE SUB DUP2 ADD SWAP1 PUSH2 0x6E SWAP2 SWAP1 PUSH2 0x4DE JUMP JUMPDEST PUSH2 0x226 JUMP JUMPDEST STOP JUMPDEST PUSH1 0x60 PUSH1 0x0 DUP1 SLOAD DUP1 PUSH1 0x20 MUL PUSH1 0x20 ADD PUSH1 0x40 MLOAD SWAP1 DUP2 ADD PUSH1 0x40 MSTORE DUP1 SWAP3 SWAP2 SWAP1 DUP2 DUP2 MSTORE PUSH1 0x20 ADD PUSH1 0x0 SWAP1 JUMPDEST DUP3 DUP3 LT ISZERO PUSH2 0x21D JUMPI DUP4 DUP3 SWAP1 PUSH1 0x0 MSTORE PUSH1 0x20 PUSH1 0x0 KECCAK256 SWAP1 PUSH1 0x5 MUL ADD PUSH1 0x40 MLOAD DUP1 PUSH1 0xA0 ADD PUSH1 0x40 MSTORE SWAP1 DUP2 PUSH1 0x0 DUP3 ADD PUSH1 0x0 SWAP1 SLOAD SWAP1 PUSH2 0x100 EXP SWAP1 DIV PUSH20 0xFFFFFFFFFFFFFFFFFFFFFFFFFFFFFFFFFFFFFFFF AND PUSH20 0xFFFFFFFFFFFFFFFFFFFFFFFFFFFFFFFFFFFFFFFF AND PUSH20 0xFFFFFFFFFFFFFFFFFFFFFFFFFFFFFFFFFFFFFFFF AND DUP2 MSTORE PUSH1 0x20 ADD PUSH1 0x1 DUP3 ADD PUSH1 0x0 SWAP1 SLOAD SWAP1 PUSH2 0x100 EXP SWAP1 DIV PUSH20 0xFFFFFFFFFFFFFFFFFFFFFFFFFFFFFFFFFFFFFFFF AND PUSH20 0xFFFFFFFFFFFFFFFFFFFFFFFFFFFFFFFFFFFFFFFF AND PUSH20 0xFFFFFFFFFFFFFFFFFFFFFFFFFFFFFFFFFFFFFFFF AND DUP2 MSTORE PUSH1 0x20 ADD PUSH1 0x2 DUP3 ADD SLOAD DUP2 MSTORE PUSH1 0x20 ADD PUSH1 0x3 DUP3 ADD DUP1 SLOAD PUSH2 0x182 SWAP1 PUSH2 0x90A JUMP JUMPDEST DUP1 PUSH1 0x1F ADD PUSH1 0x20 DUP1 SWAP2 DIV MUL PUSH1 0x20 ADD PUSH1 0x40 MLOAD SWAP1 DUP2 ADD PUSH1 0x40 MSTORE DUP1 SWAP3 SWAP2 SWAP1 DUP2 DUP2 MSTORE PUSH1 0x20 ADD DUP3 DUP1 SLOAD PUSH2 0x1AE SWAP1 PUSH2 0x90A JUMP JUMPDEST DUP1 ISZERO PUSH2 0x1FB JUMPI DUP1 PUSH1 0x1F LT PUSH2 0x1D0 JUMPI PUSH2 0x100 DUP1 DUP4 SLOAD DIV MUL DUP4 MSTORE SWAP2 PUSH1 0x20 ADD SWAP2 PUSH2 0x1FB JUMP JUMPDEST DUP3 ADD SWAP2 SWAP1 PUSH1 0x0 MSTORE PUSH1 0x20 PUSH1 0x0 KECCAK256 SWAP1 JUMPDEST DUP2 SLOAD DUP2 MSTORE SWAP1 PUSH1 0x1 ADD SWAP1 PUSH1 0x20 ADD DUP1 DUP4 GT PUSH2 0x1DE JUMPI DUP3 SWAP1 SUB PUSH1 0x1F AND DUP3 ADD SWAP2 JUMPDEST POP POP POP POP POP DUP2 MSTORE PUSH1 0x20 ADD PUSH1 0x4 DUP3 ADD SLOAD DUP2 MSTORE POP POP DUP2 MSTORE PUSH1 0x20 ADD SWAP1 PUSH1 0x1 ADD SWAP1 PUSH2 0x99 JUMP JUMPDEST POP POP POP POP SWAP1 POP SWAP1 JUMP JUMPDEST PUSH1 0x0 PUSH1 0x40 MLOAD DUP1 PUSH1 0xA0 ADD PUSH1 0x40 MSTORE DUP1 CALLER PUSH20 0xFFFFFFFFFFFFFFFFFFFFFFFFFFFFFFFFFFFFFFFF AND DUP2 MSTORE PUSH1 0x20 ADD DUP6 PUSH20 0xFFFFFFFFFFFFFFFFFFFFFFFFFFFFFFFFFFFFFFFF AND DUP2 MSTORE PUSH1 0x20 ADD DUP5 DUP2 MSTORE PUSH1 0x20 ADD DUP4 DUP2 MSTORE PUSH1 0x20 ADD TIMESTAMP DUP2 MSTORE POP SWAP1 DUP1 PUSH1 0x1 DUP2 SLOAD ADD DUP1 DUP3 SSTORE DUP1 SWAP2 POP POP PUSH1 0x1 SWAP1 SUB SWAP1 PUSH1 0x0 MSTORE PUSH1 0x20 PUSH1 0x0 KECCAK256 SWAP1 PUSH1 0x5 MUL ADD PUSH1 0x0 SWAP1 SWAP2 SWAP1 SWAP2 SWAP1 SWAP2 POP PUSH1 0x0 DUP3 ADD MLOAD DUP2 PUSH1 0x0 ADD PUSH1 0x0 PUSH2 0x100 EXP DUP2 SLOAD DUP2 PUSH20 0xFFFFFFFFFFFFFFFFFFFFFFFFFFFFFFFFFFFFFFFF MUL NOT AND SWAP1 DUP4 PUSH20 0xFFFFFFFFFFFFFFFFFFFFFFFFFFFFFFFFFFFFFFFF AND MUL OR SWAP1 SSTORE POP PUSH1 0x20 DUP3 ADD MLOAD DUP2 PUSH1 0x1 ADD PUSH1 0x0 PUSH2 0x100 EXP DUP2 SLOAD DUP2 PUSH20 0xFFFFFFFFFFFFFFFFFFFFFFFFFFFFFFFFFFFFFFFF MUL NOT AND SWAP1 DUP4 PUSH20 0xFFFFFFFFFFFFFFFFFFFFFFFFFFFFFFFFFFFFFFFF AND MUL OR SWAP1 SSTORE POP PUSH1 0x40 DUP3 ADD MLOAD DUP2 PUSH1 0x2 ADD SSTORE PUSH1 0x60 DUP3 ADD MLOAD DUP2 PUSH1 0x3 ADD SWAP1 DUP1 MLOAD SWAP1 PUSH1 0x20 ADD SWAP1 PUSH2 0x358 SWAP3 SWAP2 SWAP1 PUSH2 0x3A9 JUMP JUMPDEST POP PUSH1 0x80 DUP3 ADD MLOAD DUP2 PUSH1 0x4 ADD SSTORE POP POP PUSH32 0xC4B32D7FF75A51E487F3CBB5D3202F2EFECCA1F4C2B987E0039C1D3220B48A83 CALLER DUP5 DUP5 DUP5 TIMESTAMP PUSH1 0x40 MLOAD PUSH2 0x39C SWAP6 SWAP5 SWAP4 SWAP3 SWAP2 SWAP1 PUSH2 0x701 JUMP JUMPDEST PUSH1 0x40 MLOAD DUP1 SWAP2 SUB SWAP1 LOG1 POP POP POP JUMP JUMPDEST DUP3 DUP1 SLOAD PUSH2 0x3B5 SWAP1 PUSH2 0x90A JUMP JUMPDEST SWAP1 PUSH1 0x0 MSTORE PUSH1 0x20 PUSH1 0x0 KECCAK256 SWAP1 PUSH1 0x1F ADD PUSH1 0x20 SWAP1 DIV DUP2 ADD SWAP3 DUP3 PUSH2 0x3D7 JUMPI PUSH1 0x0 DUP6 SSTORE PUSH2 0x41E JUMP JUMPDEST DUP3 PUSH1 0x1F LT PUSH2 0x3F0 JUMPI DUP1 MLOAD PUSH1 0xFF NOT AND DUP4 DUP1 ADD OR DUP6 SSTORE PUSH2 0x41E JUMP JUMPDEST DUP3 DUP1 ADD PUSH1 0x1 ADD DUP6 SSTORE DUP3 ISZERO PUSH2 0x41E JUMPI SWAP2 DUP3 ADD JUMPDEST DUP3 DUP2 GT ISZERO PUSH2 0x41D JUMPI DUP3 MLOAD DUP3 SSTORE SWAP2 PUSH1 0x20 ADD SWAP2 SWAP1 PUSH1 0x1 ADD SWAP1 PUSH2 0x402 JUMP JUMPDEST JUMPDEST POP SWAP1 POP PUSH2 0x42B SWAP2 SWAP1 PUSH2 0x42F JUMP JUMPDEST POP SWAP1 JUMP JUMPDEST JUMPDEST DUP1 DUP3 GT ISZERO PUSH2 0x448 JUMPI PUSH1 0x0 DUP2 PUSH1 0x0 SWAP1 SSTORE POP PUSH1 0x1 ADD PUSH2 0x430 JUMP JUMPDEST POP SWAP1 JUMP JUMPDEST PUSH1 0x0 PUSH2 0x45F PUSH2 0x45A DUP5 PUSH2 0x7AE JUMP JUMPDEST PUSH2 0x77D JUMP JUMPDEST SWAP1 POP DUP3 DUP2 MSTORE PUSH1 0x20 DUP2 ADD DUP5 DUP5 DUP5 ADD GT ISZERO PUSH2 0x477 JUMPI PUSH1 0x0 DUP1 REVERT JUMPDEST PUSH2 0x482 DUP5 DUP3 DUP6 PUSH2 0x8C8 JUMP JUMPDEST POP SWAP4 SWAP3 POP POP POP JUMP JUMPDEST PUSH1 0x0 DUP2 CALLDATALOAD SWAP1 POP PUSH2 0x499 DUP2 PUSH2 0x9AB JUMP JUMPDEST SWAP3 SWAP2 POP POP JUMP JUMPDEST PUSH1 0x0 DUP3 PUSH1 0x1F DUP4 ADD SLT PUSH2 0x4B0 JUMPI PUSH1 0x0 DUP1 REVERT JUMPDEST DUP2 CALLDATALOAD PUSH2 0x4C0 DUP5 DUP3 PUSH1 0x20 DUP7 ADD PUSH2 0x44C JUMP JUMPDEST SWAP2 POP POP SWAP3 SWAP2 POP POP JUMP JUMPDEST PUSH1 0x0 DUP2 CALLDATALOAD SWAP1 POP PUSH2 0x4D8 DUP2 PUSH2 0x9C2 JUMP JUMPDEST SWAP3 SWAP2 POP POP JUMP JUMPDEST PUSH1 0x0 DUP1 PUSH1 0x0 PUSH1 0x60 DUP5 DUP7 SUB SLT ISZERO PUSH2 0x4F3 JUMPI PUSH1 0x0 DUP1 REVERT JUMPDEST PUSH1 0x0 PUSH2 0x501 DUP7 DUP3 DUP8 ADD PUSH2 0x48A JUMP JUMPDEST SWAP4 POP POP PUSH1 0x20 PUSH2 0x512 DUP7 DUP3 DUP8 ADD PUSH2 0x4C9 JUMP JUMPDEST SWAP3 POP POP PUSH1 0x40 DUP5 ADD CALLDATALOAD PUSH8 0xFFFFFFFFFFFFFFFF DUP2 GT ISZERO PUSH2 0x52F JUMPI PUSH1 0x0 DUP1 REVERT JUMPDEST PUSH2 0x53B DUP7 DUP3 DUP8 ADD PUSH2 0x49F JUMP JUMPDEST SWAP2 POP POP SWAP3 POP SWAP3 POP SWAP3 JUMP JUMPDEST PUSH1 0x0 PUSH2 0x551 DUP4 DUP4 PUSH2 0x66D JUMP JUMPDEST SWAP1 POP SWAP3 SWAP2 POP POP JUMP JUMPDEST PUSH2 0x562 DUP2 PUSH2 0x892 JUMP JUMPDEST DUP3 MSTORE POP POP JUMP JUMPDEST PUSH2 0x571 DUP2 PUSH2 0x844 JUMP JUMPDEST DUP3 MSTORE POP POP JUMP JUMPDEST PUSH2 0x580 DUP2 PUSH2 0x844 JUMP JUMPDEST DUP3 MSTORE POP POP JUMP JUMPDEST PUSH1 0x0 PUSH2 0x591 DUP3 PUSH2 0x7EE JUMP JUMPDEST PUSH2 0x59B DUP2 DUP6 PUSH2 0x811 JUMP JUMPDEST SWAP4 POP DUP4 PUSH1 0x20 DUP3 MUL DUP6 ADD PUSH2 0x5AD DUP6 PUSH2 0x7DE JUMP JUMPDEST DUP1 PUSH1 0x0 JUMPDEST DUP6 DUP2 LT ISZERO PUSH2 0x5E9 JUMPI DUP5 DUP5 SUB DUP10 MSTORE DUP2 MLOAD PUSH2 0x5CA DUP6 DUP3 PUSH2 0x545 JUMP JUMPDEST SWAP5 POP PUSH2 0x5D5 DUP4 PUSH2 0x804 JUMP JUMPDEST SWAP3 POP PUSH1 0x20 DUP11 ADD SWAP10 POP POP PUSH1 0x1 DUP2 ADD SWAP1 POP PUSH2 0x5B1 JUMP JUMPDEST POP DUP3 SWAP8 POP DUP8 SWAP6 POP POP POP POP POP POP SWAP3 SWAP2 POP POP JUMP JUMPDEST PUSH1 0x0 PUSH2 0x606 DUP3 PUSH2 0x7F9 JUMP JUMPDEST PUSH2 0x610 DUP2 DUP6 PUSH2 0x822 JUMP JUMPDEST SWAP4 POP PUSH2 0x620 DUP2 DUP6 PUSH1 0x20 DUP7 ADD PUSH2 0x8D7 JUMP JUMPDEST PUSH2 0x629 DUP2 PUSH2 0x99A JUMP JUMPDEST DUP5 ADD SWAP2 POP POP SWAP3 SWAP2 POP POP JUMP JUMPDEST PUSH1 0x0 PUSH2 0x63F DUP3 PUSH2 0x7F9 JUMP JUMPDEST PUSH2 0x649 DUP2 DUP6 PUSH2 0x833 JUMP JUMPDEST SWAP4 POP PUSH2 0x659 DUP2 DUP6 PUSH1 0x20 DUP7 ADD PUSH2 0x8D7 JUMP JUMPDEST PUSH2 0x662 DUP2 PUSH2 0x99A JUMP JUMPDEST DUP5 ADD SWAP2 POP POP SWAP3 SWAP2 POP POP JUMP JUMPDEST PUSH1 0x0 PUSH1 0xA0 DUP4 ADD PUSH1 0x0 DUP4 ADD MLOAD PUSH2 0x685 PUSH1 0x0 DUP7 ADD DUP3 PUSH2 0x568 JUMP JUMPDEST POP PUSH1 0x20 DUP4 ADD MLOAD PUSH2 0x698 PUSH1 0x20 DUP7 ADD DUP3 PUSH2 0x568 JUMP JUMPDEST POP PUSH1 0x40 DUP4 ADD MLOAD PUSH2 0x6AB PUSH1 0x40 DUP7 ADD DUP3 PUSH2 0x6E3 JUMP JUMPDEST POP PUSH1 0x60 DUP4 ADD MLOAD DUP5 DUP3 SUB PUSH1 0x60 DUP7 ADD MSTORE PUSH2 0x6C3 DUP3 DUP3 PUSH2 0x5FB JUMP JUMPDEST SWAP2 POP POP PUSH1 0x80 DUP4 ADD MLOAD PUSH2 0x6D8 PUSH1 0x80 DUP7 ADD DUP3 PUSH2 0x6E3 JUMP JUMPDEST POP DUP1 SWAP2 POP POP SWAP3 SWAP2 POP POP JUMP JUMPDEST PUSH2 0x6EC DUP2 PUSH2 0x888 JUMP JUMPDEST DUP3 MSTORE POP POP JUMP JUMPDEST PUSH2 0x6FB DUP2 PUSH2 0x888 JUMP JUMPDEST DUP3 MSTORE POP POP JUMP JUMPDEST PUSH1 0x0 PUSH1 0xA0 DUP3 ADD SWAP1 POP PUSH2 0x716 PUSH1 0x0 DUP4 ADD DUP9 PUSH2 0x577 JUMP JUMPDEST PUSH2 0x723 PUSH1 0x20 DUP4 ADD DUP8 PUSH2 0x559 JUMP JUMPDEST PUSH2 0x730 PUSH1 0x40 DUP4 ADD DUP7 PUSH2 0x6F2 JUMP JUMPDEST DUP2 DUP2 SUB PUSH1 0x60 DUP4 ADD MSTORE PUSH2 0x742 DUP2 DUP6 PUSH2 0x634 JUMP JUMPDEST SWAP1 POP PUSH2 0x751 PUSH1 0x80 DUP4 ADD DUP5 PUSH2 0x6F2 JUMP JUMPDEST SWAP7 SWAP6 POP POP POP POP POP POP JUMP JUMPDEST PUSH1 0x0 PUSH1 0x20 DUP3 ADD SWAP1 POP DUP2 DUP2 SUB PUSH1 0x0 DUP4 ADD MSTORE PUSH2 0x775 DUP2 DUP5 PUSH2 0x586 JUMP JUMPDEST SWAP1 POP SWAP3 SWAP2 POP POP JUMP JUMPDEST PUSH1 0x0 PUSH1 0x40 MLOAD SWAP1 POP DUP2 DUP2 ADD DUP2 DUP2 LT PUSH8 0xFFFFFFFFFFFFFFFF DUP3 GT OR ISZERO PUSH2 0x7A4 JUMPI PUSH2 0x7A3 PUSH2 0x96B JUMP JUMPDEST JUMPDEST DUP1 PUSH1 0x40 MSTORE POP SWAP2 SWAP1 POP JUMP JUMPDEST PUSH1 0x0 PUSH8 0xFFFFFFFFFFFFFFFF DUP3 GT ISZERO PUSH2 0x7C9 JUMPI PUSH2 0x7C8 PUSH2 0x96B JUMP JUMPDEST JUMPDEST PUSH1 0x1F NOT PUSH1 0x1F DUP4 ADD AND SWAP1 POP PUSH1 0x20 DUP2 ADD SWAP1 POP SWAP2 SWAP1 POP JUMP JUMPDEST PUSH1 0x0 DUP2 SWAP1 POP PUSH1 0x20 DUP3 ADD SWAP1 POP SWAP2 SWAP1 POP JUMP JUMPDEST PUSH1 0x0 DUP2 MLOAD SWAP1 POP SWAP2 SWAP1 POP JUMP JUMPDEST PUSH1 0x0 DUP2 MLOAD SWAP1 POP SWAP2 SWAP1 POP JUMP JUMPDEST PUSH1 0x0 PUSH1 0x20 DUP3 ADD SWAP1 POP SWAP2 SWAP1 POP JUMP JUMPDEST PUSH1 0x0 DUP3 DUP3 MSTORE PUSH1 0x20 DUP3 ADD SWAP1 POP SWAP3 SWAP2 POP POP JUMP JUMPDEST PUSH1 0x0 DUP3 DUP3 MSTORE PUSH1 0x20 DUP3 ADD SWAP1 POP SWAP3 SWAP2 POP POP JUMP JUMPDEST PUSH1 0x0 DUP3 DUP3 MSTORE PUSH1 0x20 DUP3 ADD SWAP1 POP SWAP3 SWAP2 POP POP JUMP JUMPDEST PUSH1 0x0 PUSH2 0x84F DUP3 PUSH2 0x868 JUMP JUMPDEST SWAP1 POP SWAP2 SWAP1 POP JUMP JUMPDEST PUSH1 0x0 PUSH2 0x861 DUP3 PUSH2 0x868 JUMP JUMPDEST SWAP1 POP SWAP2 SWAP1 POP JUMP JUMPDEST PUSH1 0x0 PUSH20 0xFFFFFFFFFFFFFFFFFFFFFFFFFFFFFFFFFFFFFFFF DUP3 AND SWAP1 POP SWAP2 SWAP1 POP JUMP JUMPDEST PUSH1 0x0 DUP2 SWAP1 POP SWAP2 SWAP1 POP JUMP JUMPDEST PUSH1 0x0 PUSH2 0x89D DUP3 PUSH2 0x8A4 JUMP JUMPDEST SWAP1 POP SWAP2 SWAP1 POP JUMP JUMPDEST PUSH1 0x0 PUSH2 0x8AF DUP3 PUSH2 0x8B6 JUMP JUMPDEST SWAP1 POP SWAP2 SWAP1 POP JUMP JUMPDEST PUSH1 0x0 PUSH2 0x8C1 DUP3 PUSH2 0x868 JUMP JUMPDEST SWAP1 POP SWAP2 SWAP1 POP JUMP JUMPDEST DUP3 DUP2 DUP4 CALLDATACOPY PUSH1 0x0 DUP4 DUP4 ADD MSTORE POP POP POP JUMP JUMPDEST PUSH1 0x0 JUMPDEST DUP4 DUP2 LT ISZERO PUSH2 0x8F5 JUMPI DUP1 DUP3 ADD MLOAD DUP2 DUP5 ADD MSTORE PUSH1 0x20 DUP2 ADD SWAP1 POP PUSH2 0x8DA JUMP JUMPDEST DUP4 DUP2 GT ISZERO PUSH2 0x904 JUMPI PUSH1 0x0 DUP5 DUP5 ADD MSTORE JUMPDEST POP POP POP POP JUMP JUMPDEST PUSH1 0x0 PUSH1 0x2 DUP3 DIV SWAP1 POP PUSH1 0x1 DUP3 AND DUP1 PUSH2 0x922 JUMPI PUSH1 0x7F DUP3 AND SWAP2 POP JUMPDEST PUSH1 0x20 DUP3 LT DUP2 EQ ISZERO PUSH2 0x936 JUMPI PUSH2 0x935 PUSH2 0x93C JUMP JUMPDEST JUMPDEST POP SWAP2 SWAP1 POP JUMP JUMPDEST PUSH32 0x4E487B7100000000000000000000000000000000000000000000000000000000 PUSH1 0x0 MSTORE PUSH1 0x22 PUSH1 0x4 MSTORE PUSH1 0x24 PUSH1 0x0 REVERT JUMPDEST PUSH32 0x4E487B7100000000000000000000000000000000000000000000000000000000 PUSH1 0x0 MSTORE PUSH1 0x41 PUSH1 0x4 MSTORE PUSH1 0x24 PUSH1 0x0 REVERT JUMPDEST PUSH1 0x0 PUSH1 0x1F NOT PUSH1 0x1F DUP4 ADD AND SWAP1 POP SWAP2 SWAP1 POP JUMP JUMPDEST PUSH2 0x9B4 DUP2 PUSH2 0x856 JUMP JUMPDEST DUP2 EQ PUSH2 0x9BF JUMPI PUSH1 0x0 DUP1 REVERT JUMPDEST POP JUMP JUMPDEST PUSH2 0x9CB DUP2 PUSH2 0x888 JUMP JUMPDEST DUP2 EQ PUSH2 0x9D6 JUMPI PUSH1 0x0 DUP1 REVERT JUMPDEST POP JUMP INVALID LOG2 PUSH5 0x6970667358 0x22 SLT KECCAK256 SWAP14 0xE8 CALLDATACOPY PUSH16 0x43A4F7194248569BD4AEBDAE8E11B086 0xF6 GT PUSH1 0x7 0xD1 CALLDATASIZE 0xA7 SHL XOR 0x26 EXTCODECOPY PUSH5 0x64736F6C63 NUMBER STOP ADDMOD STOP STOP CALLER "},"methodIdentifiers":{"addToBlockchain(address,uint256,string)":"eb12da4a","getAllTransactions()":"27506f53"}}}}}